:020000040000FA
:100000000C9458000C9480000C9480000C94800098
:100010000C9480000C9480000C9480000C94800060
:100020000C9480000C9480000C9480000C94800050
:100030000C9480000C9480000C9480000C94800040
:100040000C94C9030C9480000C9439040C94130490
:100050000C9480000C9480000C9480000C94800020
:100060000C946B040C948000000000002500280014
:100070002B00040404040404040402020202020229
:10008000030303030303010204081020408001025C
:1000900004081020010204081020000000080002DB
:1000A00001000003040700000000000000008A05B2
:1000B00011241FBECFEFD8E0DEBFCDBF11E0A0E01E
:1000C000B1E0E0E3F1E102C005900D92A63DB10779
:1000D000D9F723E0A6EDB1E001C01D92A234B2072A
:1000E000E1F710E0C8E5D0E004C02197FE010E94CE
:1000F0009008C735D107C9F70E94C3050C9496082C
:100100000C94000090E0FC01E656FF4F2491FC01A6
:10011000EA57FF4F3491FC01EE58FF4FE491EE2374
:10012000C9F0222339F0233001F1A8F4213019F16C
:10013000223029F1F0E0EE0FFF1FE859FF4FA591A3
:10014000B4918FB7F894EC91611126C030953E239D
:100150003C938FBF08952730A9F02830C9F0243090
:1001600049F7809180008F7D03C0809180008F7758
:1001700080938000DFCF84B58F7784BDDBCF84B5DB
:100180008F7DFBCF8091B0008F778093B000D2CF6E
:100190008091B0008F7DF9CF3E2BDACF3FB7F89436
:1001A0008091950290919602A0919702B091980249
:1001B00026B5A89B05C02F3F19F00196A11DB11DC2
:1001C0003FBFBA2FA92F982F8827BC01CD01620FFE
:1001D000711D811D911D42E0660F771F881F991FB9
:1001E0004A95D1F7089580918F0290918E02891BD4
:1001F000990B089508950895AF92BF92CF92DF9220
:10020000EF92FF920F931F93CF93DF936C017B01CB
:100210008B01040F151FEB015E01AE18BF08C0175C
:10022000D10759F06991D601ED91FC910190F081CF
:10023000E02DC6010995892B79F7C501DF91CF9192
:100240001F910F91FF90EF90DF90CF90BF90AF90F4
:100250000895FC01538D448D252F30E0842F90E0CC
:10026000821B930B541710F0CF96089501970895B1
:10027000FC01918D828D981761F0A28DAE0FBF2F7A
:10028000B11D5D968C91928D9F5F9F73928F90E0D0
:1002900008958FEF9FEF0895FC01918D828D98173F
:1002A00031F0828DE80FF11D858D90E008958FEF7C
:1002B0009FEF0895FC01918D228D892F90E0805C45
:1002C0009F4F821B91098F739927089589E992E0C6
:1002D0000E945A0121E0892B09F420E0822F089521
:1002E00080E090E0892B29F00E94660181110C9436
:1002F00000000895FC01A48DA80FB92FB11DA35AC9
:10030000BF4F2C91848D90E001968F739927848F35
:10031000A689B7892C93A089B1898C918370806458
:100320008C93938D848D981306C00288F389E02DF9
:1003300080818F7D80830895EF92FF920F931F93AA
:10034000CF93DF93EC0181E0888F9B8D8C8D981388
:100350001AC0E889F989808185FF15C09FB7F89494
:10036000EE89FF896083E889F989808183708064E0
:1003700080839FBF81E090E0DF91CF911F910F912B
:10038000FF90EF900895F62E0B8D10E00F5F1F4F3A
:100390000F731127E02E8C8D8E110CC00FB607FC49
:1003A000FACFE889F989808185FFF5CFCE010E94D7
:1003B0007A01F1CFEB8DEC0FFD2FF11DE35AFF4FCA
:1003C000F0829FB7F8940B8FEA89FB898081806265
:1003D000CFCFCF93DF93EC01888D8823B9F0AA8922
:1003E000BB89E889F9898C9185FD03C0808186FDF0
:1003F0000DC00FB607FCF7CF8C9185FFF2CF80813F
:1004000085FFEDCFCE010E947A01E9CFDF91CF9138
:1004100008952091F701260F3327331F213231052C
:10042000ECF420916802FC0190E080E0243069F057
:1004300082E00895A091F7012191AC0149525E4FED
:10044000A40FB52FB11D2C930196861798F38091B8
:10045000F701680F6093F70180E0089581E0089547
:100460001092680281E0809367021092620261E05C
:1004700082E10E94820061E083E10E948200E9EB58
:10048000F0E080818E7F808380818D7F808388E40F
:100490008093B80085E48093BC000895CF93DF93E8
:1004A00091E09093D6018823B9F0C091B800D09123
:1004B000BA008091BC008A7B8093BC0060E082E13E
:1004C0000E94820060E083E10E9482000E9430026C
:1004D000D093BA00C093B800DF91CF9108950895EA
:1004E000E0918E0280918F02E81730F4F0E0E2593B
:1004F000FD4F808190E008958FEF9FEF08959091D8
:100500008E0280918F022FEF3FEF981748F4E92F6A
:10051000F0E0E259FD4F208130E09F5F90938E0222
:10052000C9010895CF92DF92EF92FF920F931F932C
:10053000CF93DF937C01CB018A0120911E022223FD
:1005400089F0EB016B01C40ED51ECC15DD0569F0F9
:100550006991D701ED91FC910190F081E02DC701E7
:100560000995F3CF642F0E940902C801DF91CF9152
:100570001F910F91FF90EF90DF90CF900895CF9350
:10058000DF931F92CDB7DEB7698320911E0222232D
:10059000F9F020914102203258F021E030E0FC01D6
:1005A0003383228390E080E00F90DF91CF91089514
:1005B00080911F02E82FF0E0E05EFD4F998190836B
:1005C0008F5F80931F028093410281E090E0ECCF27
:1005D00061E0CE0101960E940902F7CF90E080E031
:1005E0000895FC0101900020E9F73197AF01481B05
:1005F000590BBC0189E992E00C94FC00CF93DF9386
:100600000E94F102EC0184E291E00E94F1028C0F61
:100610009D1FDF91CF9108958F929F92AF92BF92CD
:10062000CF92DF92EF92FF920F931F93CF93DF93BE
:10063000CDB7DEB7A1970FB6F894DEBF0FBECDBF22
:100640006C01990FEE08FF08F7FE47C06DE289E9DB
:1006500092E00E949C018C0122273327A9012C19CA
:100660003D094E095F0919A2CE0181967C019AE0ED
:10067000892E912CA12CB12CCA01B901A50194019C
:100680000E946E08605DF70162937F0121153105BC
:100690004105510589F790E080E0309719F0CF01CE
:1006A0000E94F102080F191F84E291E00E94F102FA
:1006B000800F911FA1960FB6F894DEBF0FBECDBF7D
:1006C000DF91CF911F910F91FF90EF90DF90CF902E
:1006D000BF90AF909F908F900895A701960119A2A7
:1006E0008E010F5D1F4F8AE0C82ED12CE12CF12C1A
:1006F000CA01B901A70196010E946E08605DF80168
:1007000062938F01211531054105510589F7309715
:1007100029F0CF010E94F1028C01C6CF10E000E069
:10072000C3CF85ED8093BC0080916A0290916B02EB
:10073000A0916C02B0916D020796A11DB11D23E03E
:10074000B695A795979587952A95D1F72091BC00E6
:1007500024FD03C010926802089540916A025091EE
:100760006B0260916C0270916D02452B462B472BFA
:1007700069F30097A105B10541F02AE22A95F1F746
:1007800000C00197A109B109E1CF809169020C94E1
:100790004E021F920F920FB60F9211242F933F9388
:1007A0008F939F93AF93BF93809191029091920208
:1007B000A0919302B09194023091900223E0230F14
:1007C0002D3758F50196A11DB11D209390028093FD
:1007D000910290939202A0939302B093940280911D
:1007E000950290919602A0919702B091980201967D
:1007F000A11DB11D8093950290939602A09397023C
:10080000B0939802BF91AF919F918F913F912F919B
:100810000F900FBE0F901F90189526E8230F029699
:10082000A11DB11DD2CF1F920F920FB60F921124AE
:100830002F933F934F935F936F937F938F939F93E8
:10084000AF93BF93EF93FF9389E992E00E947A01FF
:10085000FF91EF91BF91AF919F918F917F916F9198
:100860005F914F913F912F910F900FBE0F901F906E
:1008700018951F920F920FB60F9211242F938F93FA
:100880009F93EF93FF93E091A902F091AA028081D8
:10089000E091AF02F091B00282FD1BC09081809187
:1008A000B2028F5F8F732091B302821741F0E09103
:1008B000B202F0E0E756FD4F958F8093B202FF91B0
:1008C000EF919F918F912F910F900FBE0F901F90DE
:1008D00018958081F4CF1F920F920FB60F921124BA
:1008E0002F933F934F935F936F937F938F939F9338
:1008F000AF93BF93EF93FF938091B900887F8036C9
:1009000009F44AC0F0F5883209F4A7C018F580311F
:1009100009F49BC0B8F4882309F4F9C0883009F4BD
:1009200094C0FF91EF91BF91AF919F918F917F9173
:100930006F915F914F913F912F910F900FBE0F904C
:100940001F901895883109F488C0803251F7809340
:10095000660214C0803409F49DC040F48033B9F3BA
:100960008833F9F68093660285ECB0C0803509F4CF
:1009700085C0883509F496C0883499F60E949103A1
:10098000D0CF883909F48CC038F5883729F050F475
:10099000883611F0803729F683E080936802109240
:1009A000190257C0883809F47BC0803919F08038A3
:1009B00009F0B7CF80911902803208F071C0E09140
:1009C000190281E08E0F809319028091BB00F0E044
:1009D000E750FE4F80833DC0803B39F0E0F4803A21
:1009E00009F479C0883A09F09CCF84E080936802CA
:1009F0001092F8011092F701E0911C02F0911D0293
:100A000009958091F70181110FC081E08093F70172
:100A10001092D70109C0803C09F4A6CF883C09F4A4
:100A2000A3CF883B09F07DCFE091F80181E08E0FE4
:100A30008093F801F0E0E952FE4F80818093BB0083
:100A40009091F8018091F70129C080916302809311
:100A5000BB0085EC8093BC0064CF909165028091CF
:100A60006402981758F5E091650281E08E0F80933B
:100A70006502F0E0EE5BFD4F8081E9CFE091650219
:100A800081E08E0F809365028091BB00F0E0EE5B09
:100A9000FD4F808390916502809164029817C8F29F
:100AA00085E8D8CFE091650281E08E0F80936502E2
:100AB0008091BB00F0E0EE5BFD4F80838091670288
:100AC00081115CCF81E08093620284EA8093BC0054
:100AD0001092680226CF85EC8093BC0010926802C9
:100AE00080911902803230F4E0911902F0E0E75071
:100AF000FE4F10826091190270E0E0911A02F091AD
:100B00001B0289EF91E00995109219020ACF109209
:100B1000660234CFE9E9F2E01382128288EE93E0B4
:100B2000A0E0B0E084839583A683B78324E031E01E
:100B30003183208325EC30E03587248724EC30E0B6
:100B40003787268720EC30E0318B208B21EC30E09A
:100B5000338B228B22EC30E0358B248B26EC30E07B
:100B6000378B268B118E128E138E148EE6E3F3E0F4
:100B70001382128284839583A683B78386E191E0F2
:100B8000918380830895789484B5826084BD84B510
:100B9000816084BD85B5826085BD85B5816085BD78
:100BA00080916E00816080936E0010928100809130
:100BB00081008260809381008091810081608093B8
:100BC0008100809180008160809380008091B100DD
:100BD00084608093B1008091B00081608093B00008
:100BE00080917A00846080937A0080917A0082609C
:100BF00080937A0080917A00816080937A0080915E
:100C00007A00806880937A001092C10010928E0260
:100C100010928F0210921F02109241020E94300225
:100C20008AEF90E090931D0280931C028BEF90E07E
:100C300090931B0280931A02E091A902F091AA02FC
:100C400082E08083E091A502F091A6021082E091FB
:100C5000A702F091A8028FEC80831092B102E0917C
:100C6000AD02F091AE0286E08083E091AB02F0919C
:100C7000AC02808180618083E091AB02F091AC0294
:100C8000808188608083E091AB02F091AC0280812A
:100C900080688083E091AB02F091AC0280818F7D0F
:100CA0008083C1E0D5EE95ECF92E20E0C22E20E045
:100CB000D22EEE24EA9436E0832E88E0982E87E246
:100CC00091E00E94FE02C0931E0290924002109298
:100CD0001F021092410261E086E393E00E94BF028E
:100CE00062E086E393E00E94BF0260E886E393E05F
:100CF0000E94BF026BEB86E393E00E94BF0260E0BC
:100D000086E393E00E94BF02B090410280E28B151F
:100D100008F48EC00E94CE002B013C018091680235
:100D2000811161C082E080936802C0936702E09203
:100D3000660210926502B0926402E0E2F2E0A2E480
:100D4000B2E080E0B812F0C01092630280916302BA
:100D500080618093630280916202813009F0E8C073
:100D6000109262020E94CE002B013C01809163022E
:100D70008093BB0080916A0290916B02A0916C02FB
:100D8000B0916D02892B8A2B8B2B99F00E94CE009B
:100D900020916A0230916B0240916C0250916D0279
:100DA00064197509860997092617370748075907EF
:100DB000D8F18091BC0083FDD9CFF092BC000E9495
:100DC000CE002B013C0180916802823009F4B3C04F
:100DD000809166028F3F61F180916602803241F11D
:100DE0008091660225C080916A0290916B02A09169
:100DF0006C02B0916D02892B8A2B8B2B09F48ECF5C
:100E00000E94CE0020916A0230916B0240916C02E8
:100E100050916D02641975098609970926173707DD
:100E20004807590708F07ACF809169020E944E0264
:100E300010921F021092410210921E0282E491E071
:100E40000E94FE028BE591E00E94FE0285E291E0A5
:100E50000E94FE020E94CE002B013C01809168029C
:100E600081118BC0C0936802C0936702E092660252
:100E70001092650280926402C093630280916302C3
:100E800080618093630280916202813009F0FFC02B
:100E9000109262020E94CE002B013C0180916302FD
:100EA0008093BB0080916A0290916B02A0916C02CA
:100EB000B0916D02892B8A2B8B2BA1F00E94CE0062
:100EC00020916A0230916B0240916C0250916D0248
:100ED00064197509860997092617370748075907BE
:100EE00008F46CC08091BC0083FDD8CFF092BC00A8
:100EF0000E94CE002B013C0180916802813009F4F0
:100F0000C9C080916502873008F0E6C08091650213
:100F1000A2E4B2E0EEE6F2E090E0981709F453C0E4
:100F20002D9121939F5FF9CF91919D938F5F0ACF70
:100F3000D093BC0044CF80916A0290916B02A09143
:100F40006C02B0916D02892B8A2B8B2B09F43BCF5D
:100F50000E94CE0020916A0230916B0240916C0297
:100F600050916D026419750986099709261737078C
:100F70004807590708F027CF57CF80916A02909110
:100F80006B02A0916C02B0916D02892B8A2B8B2B86
:100F900009F464CF0E94CE0020916A0230916B0266
:100FA00040916C0250916D02641975098609970988
:100FB000261737074807590708F050CF8091690274
:100FC0000E944E0280E010928E0280938F028EE685
:100FD00091E00E94F10286E393E00E947F020E946A
:100FE0000C038AE791E00E94F10286E393E00E94FD
:100FF0007F020E940C0389E891E00E94F10286E3DF
:1010000093E00E947F025C0186E393E00E947F02EE
:10101000182F00E0C8018A299B290E940C0389E946
:1010200091E00E94F10286E393E00E947F020E9419
:101030000C0386EA91E00E94F10286E393E00E94AD
:101040007F020E940C038EEA91E00E94F10286E387
:1010500093E00E947F020E940C0385E291E00E94CF
:10106000FE0290918F0280918E02981304C08FEB44
:1010700091E00E94FE02C114D10409F420CE0E9426
:101080006601882309F41BCE0E94000016CED0937F
:10109000BC002ECF80916A0290916B02A0916C02ED
:1010A000B0916D02892B8A2B8B2B09F425CF0E94DE
:1010B000CE0020916A0230916B0240916C025091F7
:1010C0006D026419750986099709261737074807BD
:1010D000590708F011CF72CF87E01ACFA1E21A2E7C
:1010E000AA1BBB1BFD010DC0AA1FBB1FEE1FFF1FCC
:1010F000A217B307E407F50720F0A21BB30BE40B1C
:10110000F50B661F771F881F991F1A9469F7609562
:101110007095809590959B01AC01BD01CF0108951C
:10112000EE0FFF1F0590F491E02D0994F894FFCF86
:10113000000000009C01FC002901E9015A0138016E
:101140004C0100000000BF029202EE026F02F300A9
:101150007F0270020D0A00426567696E6E696E67F4
:1011600020636F6D6D756E69636174696F6E2E2E8D
:101170002E004375626520706172616D65746572E1
:1011800073207772697474656E2E0052657175658F
:101190007374696E6720646174612E2E2E00566F21
:1011A00078656C547970653A20004D617465726998
:1011B000616C547970653A20004163746976697492
:1011C0007920284271293A200053616D706C655472
:1011D0007970653A20004C6576656C3A200048616C
:1011E0007320637562652061626F76653A20004600
:1011F000696E69736865642072656164696E6720F1
:06120000646174612E0020
:107E0000112484B714BE81FFF0D085E080938100F7
:107E100082E08093C00088E18093C10086E0809377
:107E2000C20080E18093C4008EE0C9D0259A86E02C
:107E300020E33CEF91E0309385002093840096BBD3
:107E4000B09BFECF1D9AA8958150A9F7CC24DD24C4
:107E500088248394B5E0AB2EA1E19A2EF3E0BF2EE7
:107E6000A2D0813461F49FD0082FAFD0023811F036
:107E7000013811F484E001C083E08DD089C08234E0
:107E800011F484E103C0853419F485E0A6D080C0E4
:107E9000853579F488D0E82EFF2485D0082F10E0AE
:107EA000102F00270E291F29000F111F8ED06801E7
:107EB0006FC0863521F484E090D080E0DECF843638
:107EC00009F040C070D06FD0082F6DD080E0C81688
:107ED00080E7D80618F4F601B7BEE895C0E0D1E017
:107EE00062D089930C17E1F7F0E0CF16F0E7DF06D8
:107EF00018F0F601B7BEE89568D007B600FCFDCFD4
:107F0000A601A0E0B1E02C9130E011968C91119780
:107F100090E0982F8827822B932B1296FA010C0160
:107F200087BEE89511244E5F5F4FF1E0A038BF0790
:107F300051F7F601A7BEE89507B600FCFDCF97BE46
:107F4000E89526C08437B1F42ED02DD0F82E2BD052
:107F50003CD0F601EF2C8F010F5F1F4F84911BD097
:107F6000EA94F801C1F70894C11CD11CFA94CF0C13
:107F7000D11C0EC0853739F428D08EE10CD085E9AC
:107F80000AD08FE07ACF813511F488E018D01DD067
:107F900080E101D065CF982F8091C00085FFFCCF94
:107FA0009093C60008958091C00087FFFCCF809118
:107FB000C00084FD01C0A8958091C6000895E0E648
:107FC000F0E098E1908380830895EDDF803219F02E
:107FD00088E0F5DFFFCF84E1DECF1F93182FE3DFCA
:107FE0001150E9F7F2DF1F91089580E0E8DFEE27F6
:047FF000FF270994CA
:027FFE00040479
:00000001FF
