:100000001DC037C036C035C034C04DC132C031C04C
:1000100030C02FC02EC02DC02CC045C28EC10000E4
:100020000000370000000000380002020202020255
:1000300001020408102001030000040011241FBE67
:10004000CFE5D2E0DEBFCDBF10E0A0E6B0E0E0EC4F
:10005000F9E002C005900D92A436B107D9F720E06F
:10006000A4E6B0E001C01D92A73CB207E1F738D288
:10007000A5C4C6CF85E087B987B187B9369A3699C6
:10008000FECF84B195B108958091B3008823E1F348
:10009000E091AE00F0E0E959FF4F80819091AE0011
:1000A0009F5F9F719093AE009091B3009150909399
:1000B000B30008959091AA009032E1F3E091AB0073
:1000C000F0E0E957FF4F80838091AB008F5F8F7125
:1000D0008093AB008091AA008F5F8093AA0008955F
:1000E00080916600E7DF80916500E4DF8091B600D3
:1000F000E1DF80916400DEDF8091B200DBDF809180
:10010000A900D8CF90E0FC01EA5CFF4F3491FC01DC
:10011000E05DFF4F2491FC01E65DFF4FE491EE238B
:10012000B9F0332329F03130A1F48AB58F778ABD35
:10013000F0E0EE0FFF1FEC5DFF4FA591B4918FB77C
:10014000611118C0F894EC9120952E232C938FBF49
:100150000895323019F48AB58F7DE9CF333021F418
:1001600080B78F7D80BFE4CF343011F78CB58F7DA1
:100170008CBDDECFF894EC912E2BE8CFCF93DF939C
:1001800090E0FC01E05DFF4F2491865D9F4FFC01F4
:1001900084918823D1F090E0880F991FFC01E25EE2
:1001A000FF4FA591B491FC01EC5DFF4FC591D49137
:1001B00061110EC09FB7F8948C91E22FE0958E23C9
:1001C0008C932881E223E8839FBFDF91CF9108952C
:1001D0008FB7F894EC91E22BEC938FBFF6CFFF92A0
:1001E0000F931F93CF93DF93EC01F62E08811981B3
:1001F000C80163D3F81619F06F2DC80166D3CE017C
:10020000DF91CF911F910F91FF9008950F931F934E
:10021000CF93DF9300D0CDB7DEB78630E9F534DF7A
:10022000082F8093660030DF809365002DDF182F44
:100230002BDF982F812F9093B7008093B60024DF97
:10024000809364001A821982602FCE010196C7DF65
:100250006091650081E090E09A838983CE010196E8
:10026000BEDF6091B60082E090E09A838983CE0180
:100270000196B5DF6091B70083E090E09A838983AF
:10028000CE010196ACDF6091640084E090E09A8337
:100290008983CE010196A3DF0F900F90DF91CF915C
:1002A0001F910F9108951F920F920FB60F92112474
:1002B0002F933F938F939F93AF93BF938091C300EE
:1002C0009091C400A091C500B091C6003091C200C9
:1002D00026E0230F2D3768F129E8230F0396A11D8F
:1002E000B11D2093C2008093C3009093C400A093DB
:1002F000C500B093C6008091BE009091BF00A09150
:10030000C000B091C1000196A11DB11D8093BE0037
:100310009093BF00A093C000B093C100BF91AF9174
:100320009F918F913F912F910F900FBE0F901F9033
:1003300018950296A11DB11DD4CF1F920F920FB632
:100340000F9211242F933F934F935F936F937F935B
:100350008F939F93AF93BF93EF93FF938091A700E9
:100360009091A8008230910509F48BC0B0F40097F9
:10037000A9F1019709F460C0FF91EF91BF91AF918E
:100380009F918F917F916F915F914F913F912F91AD
:100390000F900FBE0F901F9018958430910509F4AF
:1003A0007AC008F443C0059739F78091B3008032D2
:1003B00090F4E091AD008FB1F0E0E959FF4F8083F8
:1003C0008091AD008F5F8F718093AD008091B300FD
:1003D0008F5F8093B30084E090E021C08FB18823C9
:1003E00031F08FB186959091AF00891322C0789B30
:1003F000F2CFE091B400F091B500309739F08091E0
:10040000B300882319F08091B3000995E091B00002
:10041000F091B100309709F0099581E090E0909358
:10042000A8008093A7001FB8B89A33C08FB1882363
:1004300019F088EA8DB91DC08091AA008823E1F0E7
:10044000E091AC00F0E0E957FF4F80818FB98091D7
:10045000AC008F5F8F718093AC008091AA008150B7
:100460008093AA0082E090E09093A8008093A70078
:10047000B89A80E78EB980CFB8981FB88EE78EB94A
:10048000D8CF83E090E09093A8008093A700B8981D
:100490001FB88EE7EFCF85E090E09093A80080939F
:1004A000A700B898E6CF1F920F920FB60F921124B3
:1004B0008F931092A8001092A700B898B29B02C028
:1004C000B09BFCCFB0990AC088EF8DB980EF8EB990
:1004D0008F910F900FBE0F901F90189588EAF5CF5F
:1004E000CF93DF9300D000D000D0CDB7DEB783E04C
:1004F0008ABD83BF789489B7826089BF80E48CBD50
:100500008FEF8DBD87EC80BF86E886B960E081E023
:1005100035DE61E083E032DE61E084E02FDE60E022
:1005200085E02CDEA7DD009721F0BC0190E080E0A3
:10053000BBD1A0DDB0E0A0E0BC01CD01660F771F0C
:10054000881F991F2FEF33E040E050E0E5D1209362
:10055000B2002230F9F0622F70E06F5F7F4F072EFC
:10056000000C880B990B2FEF30E040E050E0BBD13E
:100570006B017C01F594E794D794C794C98261E03C
:1005800084E0FCDD298160E0222329F089818F3F0E
:1005900009F0E7C061E084E0B5DD86B3869581703F
:1005A0008093A9008091B200885F1092AE001092F3
:1005B000AD001092B3001092AC001092AB001092FC
:1005C000AA008093AF0087B3856087BBC29AC09AA8
:1005D000B89888EA8DB980EF8EB980E790E0909363
:1005E000B1008093B00086E091E09093B5008093D5
:1005F000B40006EF10E038EE232E33E0332EE09106
:10060000B400F091B500309731F0759B04C0809133
:10061000B300811109958FB7F8944090C3005090B2
:10062000C4006090C5007090C6008FBF8091BA0072
:100630009091BB00A091BC00B091BD00B301A2019C
:10064000481B590B6A0B7B0B8091B8009091B90045
:10065000B0E0A0E084179507A607B70780F694E1FD
:10066000998361E083E04EDDC8010197F1F760E016
:1006700083E048DDC8010197F1F7A981A150A98362
:10068000A111EFCF8091B6009091B7009E838D832A
:10069000813DA7E09A0708F069C0892B21F481E029
:1006A00090E09E838D83B2D02EEF3FEF40E050E08C
:1006B00033D16B017C01BFEFCB1ADB0AEB0AFB0ADB
:1006C000C094D094E094F094EE24FF24A701960106
:1006D000C701B60108D14B015C012EEF3FEF41E0AD
:1006E00050E036D1DA01C9018C0D9D1DAE1DBF1D34
:1006F00089839A83AB83BC83A5019401C701B601AA
:10070000F2D0C12CD12C7601C394633071058A4F8D
:100710009F4F18F4C12CD12C760189809A80AB8030
:10072000BC808C0C9D1CAE1CBF1CC1016D817E81E8
:1007300031D19B0150E040E0C501B401D4D02FEF8E
:100740003FEF40E050E004D13093B9002093B8006F
:100750004092BA005092BB006092BC007092BD0003
:100760004ECF8CB580628CBDCBBC17CFA0EDB7E06F
:10077000BE83AD8398CF8F929F92AF92BF92CF925C
:10078000DF92EF92FF92CF93DF93EC016881798142
:100790008A819B81611571058105910521F464E2CF
:1007A00079ED8BE597E02DE133EF41E050E0B4D0F7
:1007B00049015A0127EA31E440E050E094D06B014E
:1007C0007C012CEE34EF4FEF5FEFC501B4018BD00D
:1007D000C60ED71EE81EF91EF7FE06C081E0C81A35
:1007E000D108E10880E8F80AC882D982EA82FB824F
:1007F000C701B6019F77DF91CF91FF90EF90DF9017
:10080000CF90BF90AF909F908F9008958F929F92BE
:10081000AF92BF92CF92DF92EF92FF926091600011
:100820007091610080916200909163006115710583
:100830008105910521F464E279ED8BE597E02DE1E6
:1008400033EF41E050E068D049015A0127EA31E432
:1008500040E050E048D06B017C012CEE34EF4FEFCC
:100860005FEFC501B4013FD0C60ED71EE81EF91ECA
:10087000F7FE06C081E0C81AD108E10880E8F80A4E
:10088000C0926000D0926100E0926200F09263003A
:10089000C701B6019F77FF90EF90DF90CF90BF9098
:1008A000AF909F908F900895609360007093610067
:1008B00080936200909363000895E199FECF9FBBFF
:1008C0008EBBE09A99278DB30895262FE199FECF2C
:1008D0001CBA9FBB8EBB2DBB0FB6F894E29AE19A6F
:1008E0000FBE01960895EE27FF27AA27BB2708C051
:1008F000A20FB31FE41FF51F220F331F441F551F04
:10090000969587957795679598F37040A9F7009726
:1009100099F7BD01CF010895052E97FB16F40094B9
:100920000FD057FD05D014D007FC02D046F408C004
:1009300050954095309521953F4F4F4F5F4F08950B
:1009400090958095709561957F4F8F4F9F4F08953B
:10095000A1E21A2EAA1BBB1BFD010DC0AA1FBB1FC3
:10096000EE1FFF1FA217B307E407F50720F0A21B35
:10097000B30BE40BF50B661F771F881F991F1A94A2
:1009800069F760957095809590959B01AC01BD01CC
:10099000CF010895AA1BBB1B51E107C0AA1FBB1FB3
:1009A000A617B70710F0A61BB70B881F991F5A95FB
:1009B000A9F780959095BC01CD010895F894FFCFDB
:0409C0000100000032
:00000001FF
